:020000040800F2
:10000000280900202D0200083502000837020008E8
:10001000390200083B0200083D0200080000000011
:100020000000000000000000000000003F02000887
:1000300041020008000000004302000845020008D9
:10004000470200084702000847020008470200086C
:10005000470200084702000847020008470200085C
:10006000470200084702000847020008470200084C
:10007000470200084702000847020008470200083C
:10008000470200084702000847020008470200082C
:10009000470200084702000847020008470200081C
:1000A000470200084702000847020008470200080C
:1000B000470200080000000000000000470200089E
:1000C000470200080000000000000000470200088E
:1000D000000000004702000847020008000000007E
:1000E000470200084702000800000000000000006E
:1000F0000000000000000000000000000000000000
:10010000000000000000000000000000470200089E
:10011000000000000000000047020008470200083D
:10012000470200084702000847020008470200088B
:10013000470200080000000000000000000000006E
:10014000470200084702000847020008470200086B
:10015000470200084702000847020008470200085B
:10016000470200084702000847020008000000009C
:1001700047020008470200080000000000000000DD
:1001800047020008470200084702000800F002F892
:1001900000F03CF80AA090E8000C82448344AAF1E5
:1001A0000107DA4501D100F031F8AFF2090EBAE8E3
:1001B0000F0013F0010F18BFFB1A43F0010318479B
:1001C000B4050000D4050000103A24BF78C878C1F7
:1001D000FAD8520724BF30C830C144BF04680C604D
:1001E000704700000023002400250026103A28BF95
:1001F00078C1FBD8520728BF30C148BF0B60704799
:100200001FB500F0B1FA1FBD10B510BD00F036F8F3
:100210001146FFF7F5FF00F003FA00F054F803B4BD
:10022000FFF7F2FF03BC00F057F8000009488047D1
:1002300009480047FEE7FEE7FEE7FEE7FEE7FEE7C8
:10024000FEE7FEE7FEE7FEE704480549054A064BE0
:10025000704700005D0500088D010008280300209C
:100260002809002028050020280500207047704735
:100270007047000000487047C80200207546FFF72D
:10028000F9FFAE4605006946534620F00700854653
:1002900018B020B5FFF7D8FFBDE820404FF00006AA
:1002A0004FF000074FF000084FF0000B21F007015E
:1002B000AC46ACE8C009ACE8C009ACE8C009ACE8A1
:1002C000C0098D46704710B50446AFF30080204644
:1002D000BDE81040FFF7A3BF01491820ABBEFEE701
:1002E00026000200704700004648C06C40F0020043
:1002F0004449C8640846806D40F40010886542484F
:10030000406A20F0706140484162406A40F080617C
:100310003D484162006820F440503B49086008466F
:10032000006840F40050086037480830006840F426
:100330004050354908310860081F006840F040000F
:10034000091F086030480C30006820F440502E49E6
:100350000C3108600846006840F4805008602A4864
:10036000406A20F0704128484162406A40F0804174
:1003700025484162006820F440402349086008464F
:10038000006840F4004008601F480830006840F4EE
:1003900040401D4908310860081F006840F0800097
:1003A000091F086018480C30006820F440401649C6
:1003B0000C3108600846006840F48040086000BFC7
:1003C0001248006820F001001049086000BF0020BA
:1003D000096821F4401101430C4A116000BF00BFBD
:1003E0001046006820F480501146086000BF08489D
:1003F000086100BF00BF0846006840F001000860C7
:1004000000BF704700100240000400480054004044
:10041000130F421008B5FFF767FF2D208DF800007D
:1004200008208DF8010000BF02226946532000F029
:10043000BDF80028F8D131208DF8000001208DF89A
:10044000010000BF02226946532000F0AFF80028E7
:10045000F8D13E208DF8000000208DF8010000BF8B
:1004600002226946682000F0A1F80028F8D1162081
:100470008DF800001E208DF8010000BF02226946A1
:10048000682000F093F80028F8D108BDC16941F058
:100490001001C1617047416841F4005141607047EB
:1004A000416841F480414160704701468869C0F36A
:1004B0000010704742686FF309020A4342607047B8
:1004C000426822F480620A4342607047426822F424
:1004D0007F0242EA01424260704700007FB5064653
:1004E00015461C4600BF012201A9304600F05EF807
:1004F0000028F8D121461848FFF7E8FF4FF4806143
:100500001548FFF7DDFF31461348FFF7D3FF1248C8
:10051000FFF7C1FF00BF1048FFF7C7FF40B10E480B
:10052000FFF7BEFF0C48FFF7B1FF002004B070BD1D
:1005300000BF09488069C0F3800030B100BF0648A1
:10054000406AC0B205F8010B641E002CE3D00248DB
:10055000FFF7A6FF0120E9E70054004010480068BB
:1005600040F470000E4908600E48006840F0010039
:100570000C49086000208860084600680A49084065
:10058000084908608814C8600846006820F4802084
:10059000086000208861C8030149803908607047FD
:1005A00088ED00E000100240FFFFF6EA70B5064655
:1005B0000D46144621461948FFF788FF00211748C9
:1005C000FFF77EFF31461548FFF774FF1348FFF72A
:1005D00062FF00BF1148FFF768FF60B10F48FFF7E7
:1005E0005FFF0E48FFF752FF00BF01200B498861F3
:1005F00000BF002070BD00BF0848806900F0010006
:1006000028B115F8010B0549886200BF641E002C53
:10061000E0D00248FFF744FF0120EBE70054004020
:10062000FFF7F8FE024800F005F800BFFEE7000003
:10063000AC0200201CB5044600BF06236A463221E6
:100640005320FFF74BFF0028F7D19DF800009DF8DD
:10065000011040EA012000EE100AB8EEC00ADFEDFA
:100660003D0A80EE201ABDEEC10A84ED000A9DF815
:1006700002009DF8031040EA012000EE100AB8EED7
:10068000C00ADFED340A80EE201ABDEEC10A84ED07
:10069000010A9DF804009DF8051040EA012000EED3
:1006A000100AB8EEC00ADFED2B0A80EE201ABDEE6C
:1006B000C10A84ED020A00BF06236A461D21682094
:1006C000FFF70CFF0028F7D19DF801009DF80010FE
:1006D00040EA012000EE100AF8EEC00A9FED1E1A53
:1006E00080EE810A1D48D0ED000A30EE200ABDEEF2
:1006F000C00A84ED030A9DF803009DF8021040EA49
:10070000012000EE100AB8EEC00A9FED131AC0EEE9
:10071000010A134890ED000A30EE800ABDEEC00ACF
:1007200084ED040A9DF805009DF8041040EA0120BC
:1007300000EE100AB8EEC00ADFED070A80EE201ABC
:10074000084890ED000A31EE000ABDEEC00A84EDC3
:10075000050A1CBD000000430000664100000020A7
:1007600004000020080000204FF04070E1EE100A65
:100770007047000094070008000000200C000000F3
:10078000C8010008A00700080C0000201C09000098
:10079000E40100080000000000000000000000006C
:040000050800022DC0
:00000001FF
